:1000000000308A00F12B00008E30F7002D08F80038
:100010002C08F900FA01F808031D18287908F800DF
:10002000F9010830F702F808031D1828F701202805
:100030000310F81B1F28F90DF80DF7031828F81303
:1000400000342C0803199128B400300803199128B2
:10005000B407031832287F30B402031C9128031917
:10006000912836288130B407031891283408F70006
:10007000F801F901FA012D08B800B8172E08B700E9
:100080002F08B6001830B400B501361C5F283308BD
:10009000FA07031C5128F90A031D5128F80A03190D
:1000A000B5173208F907031C5828F80A0319B517C1
:1000B0003108AE00AE172E08F8070318B517B50DB6
:1000C000F80CF90CFA0CB80CB70CB60C0310B40B06
:1000D00044280130F70703189128F81B7628B80D3B
:1000E000FA0DF90DF80DF70303199128B81F8728A9
:1000F000FA0A031D8728F90A031D8728F80A031D39
:100100008728F80CF90CFA0CF70A031991282D0826
:10011000B5003108B506B51F8F28F8179528F813D4
:100120009528F701F801F901FA01003480308318AD
:10013000B106B601B7012D08B5003108B5062C0887
:1001400003198629B400F700300803198F29B40277
:1001500003192B29031CE9283108BA00BA17320801
:10016000B9003308B800B7010310BA0CB90CB80CC9
:10017000B70CB40BB328B51FC0283614A32936100A
:10018000341036162F3084008313B8293612B51B6D
:10019000D328341CDE28BA0CB90CB80CB70CF70AFB
:1001A00003199E29DE28BA1BE1280310B70DB80DEC
:1001B000B90DBA0DF70303199E29D32836174B2919
:1001C00036132D08B500B51FE728BA179729BA13BB
:1001D00097293008B400F7002C08B4022D08BA00A3
:1001E000BA172E08B9002F08B800B7010310BA0CCF
:1001F000B90CB80CB70CB40BF528B51F0229B6140E
:10020000A329B6103410B616333084008313B829EE
:10021000B612B51B1529341C2029BA0CB90CB80C20
:10022000B70CF70A03199E292029BA1B23290310AA
:10023000B70DB80DB90DBA0DF70303199E2915298D
:10024000B6174B29B6133108B500B51F2929BA17BF
:100250009729BA1397293108BA00BA173208B9009A
:100260003308B800B51F3829BA133615A32936113B
:10027000B70134102F3084008313B829B51B6129CE
:100280002D08B500341C4B29BA0CB90CB80CB70CAE
:10029000F70A03199E29B71F5C29B80A031D5C29B8
:1002A000B90A031D5C29BA0A031D5C29BA0CB90CF2
:1002B000B80CF70A03199E29361BE028B61B222921
:1002C00080298030BA06BA1F6929A3293108B500F0
:1002D00076292D08B500BA08031D7629B908031D33
:1002E0007629B808031D7629F7019729BA1B8029BA
:1002F0000310B70DB80DB90DBA0DF70B76299E296D
:10030000B51F8429BA179729BA1397293008F7001F
:100310003108BA003208B9003308B80097292C0810
:10032000F7002D08BA002E08B9002F08B8003A08C7
:10033000F8003908F9003808FA00D629F701F80161
:10034000F901FA01D629B701B809B909BA09B709FB
:10035000B70A031DB129B80A031DB129B90A031947
:10036000BA0A3618BF28B61801293619372966295E
:100370000008B807031CC229B90A031DC229BA0A1A
:100380000319341484030008B907031CCA29BA0AE4
:100390000319341484030008801F803ABA07031835
:1003A0003414361AC628B61A08293E2900348E306D
:1003B000F7002C08F7022D08F9002E08F800F917AD
:1003C000F7080319EE290310F908031DEA29F808B4
:1003D0000319EE29F90CF80CF70BE329AD1FF529E9
:1003E000F809F909F80A0319F90A00340330AD02D3
:1003F000031C042A2D308400831300080319042AE7
:10040000022A022A800B012A00342D308400831333
:1004100000080319182A0630F800F701F70B0E2A16
:10042000F80B0D2A7B30F700F70B142A800B0B2AF0
:1004300000342908AB002B082A02031C8C2AAD01CA
:100440002B08AC0004207A08AF007908AE007808C9
:10045000AD007708AC006630B300B2000E30B100DA
:100460008130B00021208314AF01C030AE003D3098
:10047000AD008930AC007A08B3007908B200780882
:10048000B1007708B00096207A08AF007908AE0076
:100490007808AD007708AC00D7217908A600780865
:1004A000A5002508203CA7004E30A8002608031C04
:1004B000260FA80283168810831288142608AC0021
:1004C000AC0AAC030319682AFF30AD00F621612A9B
:1004D0002508AD00F621831688108312881028089D
:1004E000AC00AC0AAC030319792AFF30AD00F62149
:1004F000722A2708AD00F6210430AC00FA30AD00B6
:100500000522AC0B7E2A2A082B02031C8A2A2A0801
:10051000A9008C2AAB0A1B2A8A110A128E2C2908E0
:10052000AB002A082B02031C022BAD012B08AC00E8
:1005300004207A08AF007908AE007808AD0077088B
:10054000AC006630B300B2000E30B1008130B000B4
:1005500021208314AF01C030AE003D30AD008930A2
:10056000AC007A08B3007908B2007808B1007708C7
:10057000B00096207A08AF007908AE007808AD0088
:100580007708AC00D7217908A6007808A5002508CF
:10059000203CA7004E30A8002608031C260FA80206
:1005A00083168810831288142608AC00AC0AAC03AA
:1005B0000319DE2AFF30AD00F621D72A2508AD0049
:1005C000F62183168810831288102808AC00AC0A24
:1005D000AC030319EF2AFF30AD00F621E82A270803
:1005E000AD00F6210430AC00FA30AD000522AC0BB2
:1005F000F42A2B082A02031C002B2A08A900022B2C
:10060000AB03912A8A110A129A2C2908AB002B08F5
:100610002A02031C782BAD012B08AC0004207A08B9
:10062000AF007908AE007808AD007708AC006630FE
:10063000B300B2000E30B1008130B0002120831031
:10064000AF01C030AE003D30AD008930AC007A085B
:10065000B3007908B2007808B1007708B00096209E
:100660007A08AF007908AE007808AD007708AC00D2
:10067000D7217908A6007808A5002508203CA70006
:100680004E30A8002608031C260FA80283168810E7
:10069000831288142608AC00AC0AAC030319542B4F
:1006A000FF30AD00F6214D2B2508AD00F621831655
:1006B0008810831288102808AC00AC0AAC03031918
:1006C000652BFF30AD00F6215E2B2708AD00F6212B
:1006D0000430AC00FA30AD000522AC0B6A2B2A08BE
:1006E0002B02031C762B2A08A900782BAB0A072BB8
:1006F0008A110A12122D2908AB002A082B02031CAA
:10070000EE2BAD012B08AC0004207A08AF0079086D
:10071000AE007808AD007708AC006630B300B200D8
:100720000E30B1008130B00021208310AF01C03005
:10073000AE003D30AD008930AC007A08B3007908D6
:10074000B2007808B1007708B00096207A08AF00B0
:100750007908AE007808AD007708AC00D721790899
:10076000A6007808A5002508203CA7004E30A80068
:100770002608031C260FA8028316881083128814EB
:100780002608AC00AC0AAC030319CA2BFF30AD003D
:10079000F621C32B2508AD00F6218316881083129D
:1007A00088102808AC00AC0AAC030319DB2BFF301F
:1007B000AD00F621D42B2708AD00F6210430AC00A3
:1007C000FA30AD000522AC0BE02B2B082A02031CEB
:1007D000EC2B2A08A900EE2BAB037D2B8A110A1201
:1007E0001E2D840183131F30830583160317090808
:1007F000C039890003131F129F12003003178800AD
:100800008312870188018901831603139701031757
:10081000850183120313A001A101A401FF308316F7
:10082000860000308800831288018601A401070831
:10083000A000831605148312051C9D2C83168514B5
:1008400083128518852C0708A000AD012008AC0094
:1008500004207A08AF007908AE007808AD00770868
:10086000AC006630B300B2000E30B1008130B00091
:1008700021208314AF01C030AE003D30AD0089307F
:10088000AC007A08B3007908B2007808B1007708A4
:10089000B00096207A08AF007908AE007808AD0065
:1008A0007708AC00D7217908A6007808A5002508AC
:1008B000203CA7004E30A8002608031C260FA802E3
:1008C00083168810831288142608A900A90AA90390
:1008D00003196E2CFF30AD00F621672C2508AD0002
:1008E000F62183168810831288102808A900A90A07
:1008F000A90303197F2CFF30AD00F621782C2708BF
:10090000AD00F6212008A4009C2C20082402031826
:10091000912C2408A9002008AA00192A2008A40064
:100920009C2C2408200203189C2C2408A9002008D1
:10093000AA008F2A2008A400202D831605148312F4
:100940000518202D8316851483128518092D070894
:10095000A000AD012008AC0004207A08AF0079089F
:10096000AE007808AD007708AC006630B300B20086
:100970000E30B1008130B00021208310AF01C030B3
:10098000AE003D30AD008930AC007A08B300790884
:10099000B2007808B1007708B00096207A08AF005E
:1009A0007908AE007808AD007708AC00D721790847
:1009B000A6007808A5002508203CA7004E30A80016
:1009C0002608031C260FA802831688108312881499
:1009D0002608A900A90AA9030319F22CFF30AD00CB
:1009E000F621EB2C2508AD00F62183168810831222
:1009F00088102808A900A90AA9030319032DFF30AC
:100A0000AD00F621FC2C2708AD00F6212008A4003B
:100A1000202D200824020318152D2408A9002008E1
:100A2000AA00052B2008A400202D2408200203186A
:100A3000202D2408A9002008AA007B2B2008A40050
:040A4000172C63000C
:04400E00E22FFF3F5F
:00000001FF
;PIC16F887
