:1000000000308A000F290000FF00030E8301A100C9
:100010000A08A0008A010408A2007708A300780853
:10002000A4007908A5007A08A6007B08A70083131E
:1000300083128B1D1D280B1834280B1E21288B18AA
:100040003728220884002308F7002408F800250830
:10005000F9002608FA002708FB0020088A00210E74
:100060008300FF0E7F0E09008A110A123A288A11B6
:100070000A129A28831606168312061A4028B50A11
:10008000831686168312861A4628B60A8316061722
:100090008312061B4C28B70A831686178312861B09
:1000A00096283508C2000A30C300F701F80142085B
:1000B00003104318F707F70CF80CC318F707F70CF1
:1000C000F80C4319F707F70CF80CC319F707F70CEE
:1000D000F80C431AF707F70CF80CC31AF707F70CDC
:1000E000F80C431BF707F70CF80CC31BF707F70CCA
:1000F000F80C36087807B80037080B3C031D852834
:100100008316091083120910892883160910831297
:1001100009143A080C3C031D922883168910831297
:100120008914962883168910831289100B108A115E
:100130000A122128BA0A8B108A110A1221280330C8
:10014000C102031CAD284130840083130008031949
:10015000AD28AB28AB28800BAA2800348316850174
:10016000FE308312850028303D0784008313000889
:10017000FF3AC000831688018312400888000230CD
:10018000C0009530C1009F20C00BC1288316850197
:10019000FD308312850028303C078400831300085B
:1001A000FF3AC0008316880183124008880002309D
:1001B000C0009530C1009F20C00BD928831685014F
:1001C000FB308312850028303E078400831300082B
:1001D000C000831688018312400888000230C000E6
:1001E0009530C1009F20C00BF02883168501F730A1
:1001F0008312850028303F07840083130008C00065
:10020000831688018312400888000230C0009530B0
:10021000C1009F20C00B07298A110A129729840167
:1002200083131F308305831603170908C03989001B
:1002300003131F129F1200300317880083128701D7
:1002400088018901831603139701031785013F3045
:1002500083120313A8000630A9005B30AA004F30B8
:10026000AB006630AC006D30AD007D30AE000730C5
:10027000AF007F30B0006F30B100BF30B200FF3050
:10028000B3009230B400B801FF30BB00B501B60135
:100290000B30B700BA00FF308316860000308800AC
:1002A000850083128801C0308B040B168B15FF303C
:1002B0000317960403138B158316161683128B15DA
:1002C0008316961683128B158316161783128B15B9
:1002D00083169617011300308312BB008316870123
:1002E000FF308312870000308316850009108910C3
:1002F000091183123508093C031CB5013608093C75
:10030000031CB60137080B3C031888290A30B700D4
:100310003A080C3C03188E290B30BA003508BC0093
:100320003608BD003708BE003A08BF00AE283808BE
:0603300087007A2963003A
:04400E00E22FFF3F5F
:00000001FF
;PIC16F887
